{
  "contractName": "Count",
  "abi": [
    {
      "constant": true,
      "inputs": [],
      "name": "count",
      "outputs": [
        {
          "name": "",
          "type": "uint256"
        }
      ],
      "payable": false,
      "stateMutability": "view",
      "type": "function"
    },
    {
      "constant": true,
      "inputs": [],
      "name": "getBlockNumber",
      "outputs": [
        {
          "name": "",
          "type": "uint256"
        }
      ],
      "payable": false,
      "stateMutability": "view",
      "type": "function"
    },
    {
      "constant": false,
      "inputs": [
        {
          "name": "_count",
          "type": "uint256"
        }
      ],
      "name": "setCount",
      "outputs": [],
      "payable": false,
      "stateMutability": "nonpayable",
      "type": "function"
    }
  ],
  "bytecode": "0x60806040526000805534801561001457600080fd5b50610118806100246000396000f3006080604052600436106053576000357c0100000000000000000000000000000000000000000000000000000000900463ffffffff16806306661abd14605857806342cbb15c146080578063d14e62b81460a8575b600080fd5b348015606357600080fd5b50606a60d2565b6040518082815260200191505060405180910390f35b348015608b57600080fd5b50609260d8565b6040518082815260200191505060405180910390f35b34801560b357600080fd5b5060d06004803603810190808035906020019092919050505060e0565b005b60005481565b600043905090565b438102600081905550505600a165627a7a72305820e5e8bcc0f88f89abcb4dd0700b7a5e9f531e2d26965b446709ecaddc5f9f57a80029",
  "source": "// Klaytn IDE uses solidity 0.4.24 version.\npragma solidity 0.4.24;\n\ncontract Count {\n    // Storage variable `count` (type: uint256)\n    uint256 public count = 0;\n\n\n    // Get current node's block number.\n    function getBlockNumber() public view returns (uint256) {\n        return block.number;\n    }\n\n    // Set value of storage variable `count`.\n    function setCount(uint256 _count) public {\n        count = _count * block.number;\n    }\n}\n",
  "sourcePath": "/home/caspar/Development/klaytn/klaytn-champ/solidity/contracts/Count.sol",
  "compiler": {
    "name": "solc",
    "version": "0.4.24+commit.e67f0147.Emscripten.clang"
  },
  "schemaVersion": "3.0.0",
  "updatedAt": "2019-05-29T04:08:46.973Z",
  "devdoc": {
    "methods": {}
  },
  "userdoc": {
    "methods": {}
  }
}