{
  "contractName": "KlaytnChamp",
  "abi": [
    {
      "constant": false,
      "inputs": [
        {
          "name": "userAddress",
          "type": "address"
        }
      ],
      "name": "registerUser",
      "outputs": [],
      "payable": true,
      "stateMutability": "payable",
      "type": "function"
    },
    {
      "constant": true,
      "inputs": [
        {
          "name": "userAddress",
          "type": "address"
        }
      ],
      "name": "getUser",
      "outputs": [
        {
          "name": "randomAmount",
          "type": "uint256"
        },
        {
          "name": "level",
          "type": "uint256"
        }
      ],
      "payable": false,
      "stateMutability": "view",
      "type": "function"
    }
  ],
  "bytecode": "0x608060405234801561001057600080fd5b506102fe806100206000396000f30060806040526004361061004c576000357c0100000000000000000000000000000000000000000000000000000000900463ffffffff1680632199d5cd146100515780636f77926b14610087575b600080fd5b610085600480360381019080803573ffffffffffffffffffffffffffffffffffffffff1690602001909291905050506100e5565b005b34801561009357600080fd5b506100c8600480360381019080803573ffffffffffffffffffffffffffffffffffffffff16906020019092919050505061025f565b604051808381526020018281526020019250505060405180910390f35b6100ed6102b8565b60008060008473ffffffffffffffffffffffffffffffffffffffff1673ffffffffffffffffffffffffffffffffffffffff168152602001908152602001600020600101541415156101a6576040517f08c379a00000000000000000000000000000000000000000000000000000000081526004018080602001828103825260158152602001807f43616e6e6f74207265676973746572207477696365000000000000000000000081525060200191505060405180910390fd5b8173ffffffffffffffffffffffffffffffffffffffff166108fc349081150290604051600060405180830381858888f193505050501580156101ec573d6000803e3d6000fd5b50604080519081016040528034815260200160018152509050806000808473ffffffffffffffffffffffffffffffffffffffff1673ffffffffffffffffffffffffffffffffffffffff16815260200190815260200160002060008201518160000155602082015181600101559050505050565b60008060008060008573ffffffffffffffffffffffffffffffffffffffff1673ffffffffffffffffffffffffffffffffffffffff1681526020019081526020016000209050806000015481600101549250925050915091565b6040805190810160405280600081526020016000815250905600a165627a7a72305820461e2ec9242d57485a4f652aed842987b8a48220c5c1adfd248a51b9482ac61c0029",
  "source": "pragma solidity 0.4.24;\n\n// TODO implement OpenZeppelin's Ownable\n\ncontract KlaytnChamp {\n    struct UserData {\n        uint256 randomAmount;\n        uint256 level;\n    }\n\n    // The main mapping that contains the data for each user\n    mapping(address => UserData) _users;\n\n    function registerUser(address userAddress) public payable {\n        require(\n            _users[userAddress].level == 0,\n            \"Cannot register twice\"\n        );\n\n        // Transfer the random amount\n        userAddress.transfer(msg.value);\n\n        // If the transfer succeeded, register the user's address\n        UserData memory newUser = UserData(msg.value, 1);\n        _users[userAddress] = newUser;\n\n\n    }\n\n    function getUser(address userAddress)\n    public view\n    returns (uint256 randomAmount, uint256 level)\n    {\n        UserData storage user = _users[userAddress];\n        return (user.randomAmount, user.level);\n    }\n}\n",
  "sourcePath": "/home/caspar/Development/klaytn/klaytn-champ/solidity/contracts/KlaytnChamp.sol",
  "compiler": {
    "name": "solc",
    "version": "0.4.24+commit.e67f0147.Emscripten.clang"
  },
  "schemaVersion": "3.0.0",
  "updatedAt": "2019-05-27T11:54:00.122Z",
  "devdoc": {
    "methods": {}
  },
  "userdoc": {
    "methods": {}
  }
}