{
  "contractName": "KlaytnChamp",
  "abi": [
    {
      "constant": false,
      "inputs": [],
      "name": "renounceOwnership",
      "outputs": [],
      "payable": false,
      "stateMutability": "nonpayable",
      "type": "function"
    },
    {
      "constant": true,
      "inputs": [],
      "name": "owner",
      "outputs": [
        {
          "name": "",
          "type": "address"
        }
      ],
      "payable": false,
      "stateMutability": "view",
      "type": "function"
    },
    {
      "constant": true,
      "inputs": [],
      "name": "isOwner",
      "outputs": [
        {
          "name": "",
          "type": "bool"
        }
      ],
      "payable": false,
      "stateMutability": "view",
      "type": "function"
    },
    {
      "constant": false,
      "inputs": [
        {
          "name": "newOwner",
          "type": "address"
        }
      ],
      "name": "transferOwnership",
      "outputs": [],
      "payable": false,
      "stateMutability": "nonpayable",
      "type": "function"
    },
    {
      "anonymous": false,
      "inputs": [
        {
          "indexed": true,
          "name": "previousOwner",
          "type": "address"
        },
        {
          "indexed": true,
          "name": "newOwner",
          "type": "address"
        }
      ],
      "name": "OwnershipTransferred",
      "type": "event"
    },
    {
      "constant": false,
      "inputs": [
        {
          "name": "userAddress",
          "type": "address"
        },
        {
          "name": "googleHash",
          "type": "bytes32"
        }
      ],
      "name": "registerUser",
      "outputs": [],
      "payable": true,
      "stateMutability": "payable",
      "type": "function"
    },
    {
      "constant": false,
      "inputs": [
        {
          "name": "userAddress",
          "type": "address"
        },
        {
          "name": "newLevel",
          "type": "uint64"
        }
      ],
      "name": "updateUserLevel",
      "outputs": [],
      "payable": false,
      "stateMutability": "nonpayable",
      "type": "function"
    },
    {
      "constant": false,
      "inputs": [
        {
          "name": "userAddress",
          "type": "address"
        },
        {
          "name": "newCertificationLevel",
          "type": "uint64"
        }
      ],
      "name": "updateUserCertificationLevel",
      "outputs": [],
      "payable": false,
      "stateMutability": "nonpayable",
      "type": "function"
    },
    {
      "constant": true,
      "inputs": [
        {
          "name": "userAddress",
          "type": "address"
        }
      ],
      "name": "getUser",
      "outputs": [
        {
          "name": "randomAmount",
          "type": "uint64"
        },
        {
          "name": "level",
          "type": "uint64"
        },
        {
          "name": "certificationLevel",
          "type": "uint64"
        },
        {
          "name": "googleHash",
          "type": "bytes32"
        }
      ],
      "payable": false,
      "stateMutability": "view",
      "type": "function"
    },
    {
      "constant": false,
      "inputs": [
        {
          "name": "userAddress",
          "type": "address"
        }
      ],
      "name": "resetUser",
      "outputs": [],
      "payable": false,
      "stateMutability": "nonpayable",
      "type": "function"
    }
  ],
  "bytecode": "0x6080604052336000806101000a81548173ffffffffffffffffffffffffffffffffffffffff021916908373ffffffffffffffffffffffffffffffffffffffff1602179055506000809054906101000a900473ffffffffffffffffffffffffffffffffffffffff1673ffffffffffffffffffffffffffffffffffffffff16600073ffffffffffffffffffffffffffffffffffffffff167f8be0079c531659141344cd1fd0a4f28419497f9722a3daafe3b4186f6b6457e060405160405180910390a3611154806100cf6000396000f300608060405260043610610099576000357c0100000000000000000000000000000000000000000000000000000000900463ffffffff168063343959b41461009e5780636f77926b146100e1578063715018a61461019157806378c05076146101a85780638da5cb5b146101ff5780638f32d59b14610256578063b615ce5a14610285578063d7e0b6e3146102dc578063f2fde38b14610320575b600080fd5b3480156100aa57600080fd5b506100df600480360381019080803573ffffffffffffffffffffffffffffffffffffffff169060200190929190505050610363565b005b3480156100ed57600080fd5b50610122600480360381019080803573ffffffffffffffffffffffffffffffffffffffff1690602001909291905050506104ee565b604051808567ffffffffffffffff1667ffffffffffffffff1681526020018467ffffffffffffffff1667ffffffffffffffff1681526020018367ffffffffffffffff1667ffffffffffffffff168152602001826000191660001916815260200194505050505060405180910390f35b34801561019d57600080fd5b506101a6610597565b005b3480156101b457600080fd5b506101fd600480360381019080803573ffffffffffffffffffffffffffffffffffffffff169060200190929190803567ffffffffffffffff1690602001909291905050506106d2565b005b34801561020b57600080fd5b5061021461085b565b604051808273ffffffffffffffffffffffffffffffffffffffff1673ffffffffffffffffffffffffffffffffffffffff16815260200191505060405180910390f35b34801561026257600080fd5b5061026b610884565b604051808215151515815260200191505060405180910390f35b34801561029157600080fd5b506102da600480360381019080803573ffffffffffffffffffffffffffffffffffffffff169060200190929190803567ffffffffffffffff1690602001909291905050506108db565b005b61031e600480360381019080803573ffffffffffffffffffffffffffffffffffffffff1690602001909291908035600019169060200190929190505050610a64565b005b34801561032c57600080fd5b50610361600480360381019080803573ffffffffffffffffffffffffffffffffffffffff169060200190929190505050610eaf565b005b600061036d610884565b15156103e1576040517f08c379a00000000000000000000000000000000000000000000000000000000081526004018080602001828103825260208152602001807f4f776e61626c653a2063616c6c6572206973206e6f7420746865206f776e657281525060200191505060405180910390fd5b600160008373ffffffffffffffffffffffffffffffffffffffff1673ffffffffffffffffffffffffffffffffffffffff168152602001908152602001600020905060008160000160006101000a81548167ffffffffffffffff021916908367ffffffffffffffff16021790555060008160000160086101000a81548167ffffffffffffffff021916908367ffffffffffffffff16021790555060008160000160106101000a81548167ffffffffffffffff021916908367ffffffffffffffff16021790555060006001028160010181600019169055506000600102816002018160001916905550600060010281600301816000191690555060006001028160040181600019169055505050565b6000806000806000600160008773ffffffffffffffffffffffffffffffffffffffff1673ffffffffffffffffffffffffffffffffffffffff16815260200190815260200160002090508060000160009054906101000a900467ffffffffffffffff168160000160089054906101000a900467ffffffffffffffff168260000160109054906101000a900467ffffffffffffffff1683600101549450945094509450509193509193565b61059f610884565b1515610613576040517f08c379a00000000000000000000000000000000000000000000000000000000081526004018080602001828103825260208152602001807f4f776e61626c653a2063616c6c6572206973206e6f7420746865206f776e657281525060200191505060405180910390fd5b600073ffffffffffffffffffffffffffffffffffffffff166000809054906101000a900473ffffffffffffffffffffffffffffffffffffffff1673ffffffffffffffffffffffffffffffffffffffff167f8be0079c531659141344cd1fd0a4f28419497f9722a3daafe3b4186f6b6457e060405160405180910390a360008060006101000a81548173ffffffffffffffffffffffffffffffffffffffff021916908373ffffffffffffffffffffffffffffffffffffffff160217905550565b60006106dc610884565b1515610750576040517f08c379a00000000000000000000000000000000000000000000000000000000081526004018080602001828103825260208152602001807f4f776e61626c653a2063616c6c6572206973206e6f7420746865206f776e657281525060200191505060405180910390fd5b600160008473ffffffffffffffffffffffffffffffffffffffff1673ffffffffffffffffffffffffffffffffffffffff168152602001908152602001600020905060008160000160089054906101000a900467ffffffffffffffff1667ffffffffffffffff1611151561082b576040517f08c379a00000000000000000000000000000000000000000000000000000000081526004018080602001828103825260198152602001807f557365722068617320746f20626520726567697374657265640000000000000081525060200191505060405180910390fd5b818160000160086101000a81548167ffffffffffffffff021916908367ffffffffffffffff160217905550505050565b60008060009054906101000a900473ffffffffffffffffffffffffffffffffffffffff16905090565b60008060009054906101000a900473ffffffffffffffffffffffffffffffffffffffff1673ffffffffffffffffffffffffffffffffffffffff163373ffffffffffffffffffffffffffffffffffffffff1614905090565b60006108e5610884565b1515610959576040517f08c379a00000000000000000000000000000000000000000000000000000000081526004018080602001828103825260208152602001807f4f776e61626c653a2063616c6c6572206973206e6f7420746865206f776e657281525060200191505060405180910390fd5b600160008473ffffffffffffffffffffffffffffffffffffffff1673ffffffffffffffffffffffffffffffffffffffff168152602001908152602001600020905060008160000160089054906101000a900467ffffffffffffffff1667ffffffffffffffff16111515610a34576040517f08c379a00000000000000000000000000000000000000000000000000000000081526004018080602001828103825260198152602001807f557365722068617320746f20626520726567697374657265640000000000000081525060200191505060405180910390fd5b818160000160106101000a81548167ffffffffffffffff021916908367ffffffffffffffff160217905550505050565b610a6c6110c0565b610a74610884565b1515610ae8576040517f08c379a00000000000000000000000000000000000000000000000000000000081526004018080602001828103825260208152602001807f4f776e61626c653a2063616c6c6572206973206e6f7420746865206f776e657281525060200191505060405180910390fd5b6000600160008573ffffffffffffffffffffffffffffffffffffffff1673ffffffffffffffffffffffffffffffffffffffff16815260200190815260200160002060000160089054906101000a900467ffffffffffffffff1667ffffffffffffffff16141515610bc0576040517f08c379a00000000000000000000000000000000000000000000000000000000081526004018080602001828103825260158152602001807f43616e6e6f74207265676973746572207477696365000000000000000000000081525060200191505060405180910390fd5b600034111515610c38576040517f08c379a00000000000000000000000000000000000000000000000000000000081526004018080602001828103825260198152602001807f52616e646f6d20616d6f756e742063616e6e6f7420626520300000000000000081525060200191505060405180910390fd5b67ffffffffffffffff34101515610cdd576040517f08c379a000000000000000000000000000000000000000000000000000000000815260040180806020018281038252602e8152602001807f72616e646f6d20616d6f756e742063616e6e6f74206265206c6172676572207481526020017f68616e2055494e543634206d617800000000000000000000000000000000000081525060400191505060405180910390fd5b8273ffffffffffffffffffffffffffffffffffffffff166108fc349081150290604051600060405180830381858888f19350505050158015610d23573d6000803e3d6000fd5b5060e0604051908101604052803467ffffffffffffffff168152602001600167ffffffffffffffff168152602001600067ffffffffffffffff168152602001600060010260001916815260200160006001026000191681526020016000600102600019168152602001600060010260001916815250905080600160008573ffffffffffffffffffffffffffffffffffffffff1673ffffffffffffffffffffffffffffffffffffffff16815260200190815260200160002060008201518160000160006101000a81548167ffffffffffffffff021916908367ffffffffffffffff16021790555060208201518160000160086101000a81548167ffffffffffffffff021916908367ffffffffffffffff16021790555060408201518160000160106101000a81548167ffffffffffffffff021916908367ffffffffffffffff160217905550606082015181600101906000191690556080820151816002019060001916905560a0820151816003019060001916905560c08201518160040190600019169055905050505050565b610eb7610884565b1515610f2b576040517f08c379a00000000000000000000000000000000000000000000000000000000081526004018080602001828103825260208152602001807f4f776e61626c653a2063616c6c6572206973206e6f7420746865206f776e657281525060200191505060405180910390fd5b610f3481610f37565b50565b600073ffffffffffffffffffffffffffffffffffffffff168173ffffffffffffffffffffffffffffffffffffffff1614151515611002576040517f08c379a00000000000000000000000000000000000000000000000000000000081526004018080602001828103825260268152602001807f4f776e61626c653a206e6577206f776e657220697320746865207a65726f206181526020017f646472657373000000000000000000000000000000000000000000000000000081525060400191505060405180910390fd5b8073ffffffffffffffffffffffffffffffffffffffff166000809054906101000a900473ffffffffffffffffffffffffffffffffffffffff1673ffffffffffffffffffffffffffffffffffffffff167f8be0079c531659141344cd1fd0a4f28419497f9722a3daafe3b4186f6b6457e060405160405180910390a3806000806101000a81548173ffffffffffffffffffffffffffffffffffffffff021916908373ffffffffffffffffffffffffffffffffffffffff16021790555050565b60e060405190810160405280600067ffffffffffffffff168152602001600067ffffffffffffffff168152602001600067ffffffffffffffff1681526020016000801916815260200160008019168152602001600080191681526020016000801916815250905600a165627a7a72305820cd7925c9d67f56e0193da1bcddc0123fff281e6c9323349a78232270fd8461580029",
  "source": "pragma solidity 0.4.24;\n\ncontract Ownable {\n    address private _owner;\n\n    event OwnershipTransferred(address indexed previousOwner, address indexed newOwner);\n\n    /**\n     * @dev Initializes the contract setting the deployer as the initial owner.\n     */\n    constructor () internal {\n        _owner = msg.sender;\n        emit OwnershipTransferred(address(0), _owner);\n    }\n\n    /**\n     * @dev Returns the address of the current owner.\n     */\n    function owner() public view returns (address) {\n        return _owner;\n    }\n\n    /**\n     * @dev Throws if called by any account other than the owner.\n     */\n    modifier onlyOwner() {\n        require(isOwner(), \"Ownable: caller is not the owner\");\n        _;\n    }\n\n    /**\n     * @dev Returns true if the caller is the current owner.\n     */\n    function isOwner() public view returns (bool) {\n        return msg.sender == _owner;\n    }\n\n    /**\n     * @dev Leaves the contract without owner. It will not be possible to call\n     * `onlyOwner` functions anymore. Can only be called by the current owner.\n     *\n     * > Note: Renouncing ownership will leave the contract without an owner,\n     * thereby removing any functionality that is only available to the owner.\n     */\n    function renounceOwnership() public onlyOwner {\n        emit OwnershipTransferred(_owner, address(0));\n        _owner = address(0);\n    }\n\n    /**\n     * @dev Transfers ownership of the contract to a new account (`newOwner`).\n     * Can only be called by the current owner.\n     */\n    function transferOwnership(address newOwner) public onlyOwner {\n        _transferOwnership(newOwner);\n    }\n\n    /**\n     * @dev Transfers ownership of the contract to a new account (`newOwner`).\n     */\n    function _transferOwnership(address newOwner) internal {\n        require(newOwner != address(0), \"Ownable: new owner is the zero address\");\n        emit OwnershipTransferred(_owner, newOwner);\n        _owner = newOwner;\n    }\n}\n\ncontract KlaytnChamp is Ownable {\n    struct UserData {\n        uint64 randomAmount;\n        uint64 level;\n        uint64 certificationLevel;\n        bytes32 googleHash;\n        bytes32 linkedinHash;\n        bytes32 githubHash;\n        bytes32 facebookHash;\n    }\n\n    // The main mapping that contains the data for each user\n    mapping(address => UserData) _users;\n\n    function registerUser(address userAddress, bytes32 googleHash) public payable onlyOwner {\n        require(\n            _users[userAddress].level == 0,\n            \"Cannot register twice\"\n        );\n        require(\n            msg.value > 0,\n            \"Random amount cannot be 0\"\n        );\n        require(\n            msg.value < 18446744073709551615,\n            \"random amount cannot be larger than UINT64 max\"\n        );\n\n        // Transfer the random amount\n        userAddress.transfer(msg.value);\n\n        // If the transfer succeeded, register the user's address\n        UserData memory newUser = UserData(uint64(msg.value), 1, 0, 0, 0, 0, 0);\n        _users[userAddress] = newUser;\n    }\n\n    function updateUserLevel(address userAddress, uint64 newLevel) public onlyOwner {\n        UserData storage user = _users[userAddress];\n\n        require(user.level > 0, \"User has to be registered\");\n//        require(newLevel > user.level, \"New level has to be higher\");\n\n        user.level = newLevel;\n\n    }\n\n    function updateUserCertificationLevel(address userAddress, uint64 newCertificationLevel) public onlyOwner {\n        UserData storage user = _users[userAddress];\n\n        require(user.level > 0, \"User has to be registered\");\n        user.certificationLevel = newCertificationLevel;\n\n    }\n\n    function getUser(address userAddress)\n    public view\n    returns (uint64 randomAmount, uint64 level, uint64 certificationLevel, bytes32 googleHash)\n    {\n        UserData storage user = _users[userAddress];\n        return (user.randomAmount, user.level, user.certificationLevel, user.googleHash);\n    }\n\n    function resetUser(address userAddress) public onlyOwner {\n        UserData storage user = _users[userAddress];\n\n        user.randomAmount = 0;\n        user.level = 0;\n        user.certificationLevel = 0;\n        user.googleHash = 0x0;\n        user.linkedinHash = 0x0;\n        user.githubHash = 0x0;\n        user.facebookHash = 0x0;\n    }\n\n    //TODO: Add search by googleHash to retrieve certificate : return UserData by googleHash\n    //\n}\n",
  "sourcePath": "/home/caspar/Development/klaytn/klaytn-champ/solidity/contracts/KlaytnChamp.sol",
  "compiler": {
    "name": "solc",
    "version": "0.4.24+commit.e67f0147.Emscripten.clang"
  },
  "schemaVersion": "3.0.0",
  "updatedAt": "2019-05-30T06:34:54.975Z",
  "devdoc": {
    "methods": {
      "isOwner()": {
        "details": "Returns true if the caller is the current owner."
      },
      "owner()": {
        "details": "Returns the address of the current owner."
      },
      "renounceOwnership()": {
        "details": "Leaves the contract without owner. It will not be possible to call `onlyOwner` functions anymore. Can only be called by the current owner.     * > Note: Renouncing ownership will leave the contract without an owner, thereby removing any functionality that is only available to the owner."
      },
      "transferOwnership(address)": {
        "details": "Transfers ownership of the contract to a new account (`newOwner`). Can only be called by the current owner."
      }
    }
  },
  "userdoc": {
    "methods": {}
  }
}